{
  "contractName": "Qiwi",
  "abi": [
    {
      "constant": true,
      "inputs": [],
      "name": "jobSet",
      "outputs": [
        {
          "name": "",
          "type": "bool"
        }
      ],
      "payable": false,
      "stateMutability": "view",
      "type": "function"
    },
    {
      "constant": true,
      "inputs": [],
      "name": "treeClosed",
      "outputs": [
        {
          "name": "",
          "type": "bool"
        }
      ],
      "payable": false,
      "stateMutability": "view",
      "type": "function"
    },
    {
      "constant": true,
      "inputs": [],
      "name": "job",
      "outputs": [
        {
          "name": "result",
          "type": "string"
        },
        {
          "name": "money",
          "type": "uint256"
        },
        {
          "name": "expectingTime",
          "type": "uint256"
        }
      ],
      "payable": false,
      "stateMutability": "view",
      "type": "function"
    },
    {
      "constant": true,
      "inputs": [
        {
          "name": "",
          "type": "address"
        }
      ],
      "name": "roles",
      "outputs": [
        {
          "name": "",
          "type": "uint256"
        }
      ],
      "payable": false,
      "stateMutability": "view",
      "type": "function"
    },
    {
      "constant": true,
      "inputs": [
        {
          "name": "",
          "type": "uint256"
        }
      ],
      "name": "transactions",
      "outputs": [
        {
          "name": "",
          "type": "string"
        }
      ],
      "payable": false,
      "stateMutability": "view",
      "type": "function"
    },
    {
      "constant": true,
      "inputs": [],
      "name": "tree",
      "outputs": [
        {
          "name": "status",
          "type": "uint256"
        },
        {
          "name": "amountOfTasks",
          "type": "uint256"
        }
      ],
      "payable": false,
      "stateMutability": "view",
      "type": "function"
    },
    {
      "constant": true,
      "inputs": [],
      "name": "transactionsCount",
      "outputs": [
        {
          "name": "",
          "type": "uint256"
        }
      ],
      "payable": false,
      "stateMutability": "view",
      "type": "function"
    },
    {
      "inputs": [],
      "payable": false,
      "stateMutability": "nonpayable",
      "type": "constructor"
    },
    {
      "constant": false,
      "inputs": [
        {
          "name": "addr",
          "type": "address"
        }
      ],
      "name": "addClient",
      "outputs": [],
      "payable": false,
      "stateMutability": "nonpayable",
      "type": "function"
    },
    {
      "constant": false,
      "inputs": [
        {
          "name": "addr",
          "type": "address"
        }
      ],
      "name": "addConstructor",
      "outputs": [],
      "payable": false,
      "stateMutability": "nonpayable",
      "type": "function"
    },
    {
      "constant": false,
      "inputs": [
        {
          "name": "addr",
          "type": "address"
        }
      ],
      "name": "addWorker",
      "outputs": [],
      "payable": false,
      "stateMutability": "nonpayable",
      "type": "function"
    },
    {
      "constant": false,
      "inputs": [
        {
          "name": "addr",
          "type": "address"
        }
      ],
      "name": "addBot",
      "outputs": [],
      "payable": false,
      "stateMutability": "nonpayable",
      "type": "function"
    },
    {
      "constant": false,
      "inputs": [
        {
          "name": "transactionData",
          "type": "string"
        }
      ],
      "name": "addTransaction",
      "outputs": [],
      "payable": false,
      "stateMutability": "nonpayable",
      "type": "function"
    },
    {
      "constant": false,
      "inputs": [
        {
          "name": "result",
          "type": "string"
        },
        {
          "name": "money",
          "type": "uint256"
        },
        {
          "name": "time",
          "type": "uint256"
        }
      ],
      "name": "setJob",
      "outputs": [],
      "payable": false,
      "stateMutability": "nonpayable",
      "type": "function"
    },
    {
      "constant": false,
      "inputs": [
        {
          "name": "name",
          "type": "string"
        },
        {
          "name": "description",
          "type": "string"
        },
        {
          "name": "timeStart",
          "type": "uint256"
        },
        {
          "name": "timeEnd",
          "type": "uint256"
        },
        {
          "name": "money",
          "type": "uint256"
        },
        {
          "name": "workerAddr",
          "type": "string"
        }
      ],
      "name": "addTask",
      "outputs": [],
      "payable": false,
      "stateMutability": "nonpayable",
      "type": "function"
    },
    {
      "constant": false,
      "inputs": [
        {
          "name": "thisTask",
          "type": "uint256"
        },
        {
          "name": "prevTask",
          "type": "uint256"
        }
      ],
      "name": "addPreviousTask",
      "outputs": [],
      "payable": false,
      "stateMutability": "nonpayable",
      "type": "function"
    },
    {
      "constant": false,
      "inputs": [],
      "name": "closeTree",
      "outputs": [],
      "payable": false,
      "stateMutability": "nonpayable",
      "type": "function"
    },
    {
      "constant": false,
      "inputs": [
        {
          "name": "taskNumber",
          "type": "uint256"
        }
      ],
      "name": "closeTask",
      "outputs": [],
      "payable": false,
      "stateMutability": "nonpayable",
      "type": "function"
    },
    {
      "constant": true,
      "inputs": [
        {
          "name": "number",
          "type": "uint256"
        }
      ],
      "name": "getTaskName",
      "outputs": [
        {
          "name": "",
          "type": "string"
        }
      ],
      "payable": false,
      "stateMutability": "view",
      "type": "function"
    },
    {
      "constant": true,
      "inputs": [
        {
          "name": "number",
          "type": "uint256"
        }
      ],
      "name": "getTaskDescription",
      "outputs": [
        {
          "name": "",
          "type": "string"
        }
      ],
      "payable": false,
      "stateMutability": "view",
      "type": "function"
    },
    {
      "constant": true,
      "inputs": [
        {
          "name": "number",
          "type": "uint256"
        }
      ],
      "name": "getTaskTimeStart",
      "outputs": [
        {
          "name": "",
          "type": "uint256"
        }
      ],
      "payable": false,
      "stateMutability": "view",
      "type": "function"
    },
    {
      "constant": true,
      "inputs": [
        {
          "name": "number",
          "type": "uint256"
        }
      ],
      "name": "getTaskTimeEnd",
      "outputs": [
        {
          "name": "",
          "type": "uint256"
        }
      ],
      "payable": false,
      "stateMutability": "view",
      "type": "function"
    },
    {
      "constant": true,
      "inputs": [
        {
          "name": "number",
          "type": "uint256"
        }
      ],
      "name": "getTaskMoney",
      "outputs": [
        {
          "name": "",
          "type": "uint256"
        }
      ],
      "payable": false,
      "stateMutability": "view",
      "type": "function"
    },
    {
      "constant": true,
      "inputs": [
        {
          "name": "number",
          "type": "uint256"
        }
      ],
      "name": "getTaskWorkerName",
      "outputs": [
        {
          "name": "",
          "type": "string"
        }
      ],
      "payable": false,
      "stateMutability": "view",
      "type": "function"
    },
    {
      "constant": true,
      "inputs": [
        {
          "name": "number",
          "type": "uint256"
        }
      ],
      "name": "getTaskPreviousNumbers",
      "outputs": [
        {
          "name": "",
          "type": "uint256[]"
        }
      ],
      "payable": false,
      "stateMutability": "view",
      "type": "function"
    },
    {
      "constant": true,
      "inputs": [
        {
          "name": "number",
          "type": "uint256"
        }
      ],
      "name": "getTaskStatus",
      "outputs": [
        {
          "name": "",
          "type": "uint256"
        }
      ],
      "payable": false,
      "stateMutability": "view",
      "type": "function"
    }
  ],
  "bytecode": "0x608060405234801561001057600080fd5b5060016000803373ffffffffffffffffffffffffffffffffffffffff1673ffffffffffffffffffffffffffffffffffffffff16815260200190815260200160002081905550600160008073e4864a2e8415f78e3a8e35a07cd92c6cf7636f9873ffffffffffffffffffffffffffffffffffffffff1673ffffffffffffffffffffffffffffffffffffffff168152602001908152602001600020819055506002600080730606bea3cf8586c2afe57c705ee8c93d7bab67d773ffffffffffffffffffffffffffffffffffffffff1673ffffffffffffffffffffffffffffffffffffffff16815260200190815260200160002081905550600360008073862a447f1cb84a61f1b8442fbc60d80e6ec1bf2d73ffffffffffffffffffffffffffffffffffffffff1673ffffffffffffffffffffffffffffffffffffffff16815260200190815260200160002081905550600460008073ac556767ffc7b3da5f095bbaa31016aa2aed758f73ffffffffffffffffffffffffffffffffffffffff1673ffffffffffffffffffffffffffffffffffffffff1681526020019081526020016000208190555060056000807324431d4472826f9f6f461004dfb8836e2e1512f273ffffffffffffffffffffffffffffffffffffffff1673ffffffffffffffffffffffffffffffffffffffff16815260200190815260200160002081905550604051806040016040528060008152602001600081525060076000820151816001015560208201518160020155905050611a9c8061024c6000396000f3fe608060405234801561001057600080fd5b50600436106101735760003560e01c8063806ad57e116100de578063cde09a8111610097578063f1c93df811610071578063f1c93df814610a0d578063fd54b22814610a4f578063fd99a74614610a74578063ffecf51614610a9257610173565b8063cde09a81146108e0578063ce9c604c14610922578063d7f1b2591461096657610173565b8063806ad57e146106105780638a3c4a211461065457806399374642146107955780639ace38c2146107ed5780639d51a7a614610894578063c2214a5b146108d657610173565b806343928cfd1161013057806343928cfd146103a1578063517715f0146103e55780635290900b1461045e57806356755b13146104a057806358e7ec3c1461054757806365d891af146105d857610173565b80631201dfc6146101785780632065ef37146101a657806324eeef221461024d5780632c7c1ec4146102d05780633c162f121461035d5780633fdeeefe1461037f575b600080fd5b6101a46004803603602081101561018e57600080fd5b8101908080359060200190929190505050610ad6565b005b6101d2600480360360208110156101bc57600080fd5b8101908080359060200190929190505050610b69565b6040518080602001828103825283818151815260200191508051906020019080838360005b838110156102125780820151818401526020810190506101f7565b50505050905090810190601f16801561023f5780820380516001836020036101000a031916815260200191505b509250505060405180910390f35b6102796004803603602081101561026357600080fd5b8101908080359060200190929190505050610c24565b6040518080602001828103825283818151815260200191508051906020019060200280838360005b838110156102bc5780820151818401526020810190506102a1565b505050509050019250505060405180910390f35b61035b600480360360608110156102e657600080fd5b810190808035906020019064010000000081111561030357600080fd5b82018360208201111561031557600080fd5b8035906020019184600183028401116401000000008311171561033757600080fd5b90919293919293908035906020019092919080359060200190929190505050610cf3565b005b610365610e0e565b604051808215151515815260200191505060405180910390f35b610387610e21565b604051808215151515815260200191505060405180910390f35b6103e3600480360360208110156103b757600080fd5b81019080803573ffffffffffffffffffffffffffffffffffffffff169060200190929190505050610e34565b005b61045c600480360360208110156103fb57600080fd5b810190808035906020019064010000000081111561041857600080fd5b82018360208201111561042a57600080fd5b8035906020019184600183028401116401000000008311171561044c57600080fd5b9091929391929390505050610f11565b005b61048a6004803603602081101561047457600080fd5b8101908080359060200190929190505050610f96565b6040518082815260200191505060405180910390f35b6104cc600480360360208110156104b657600080fd5b8101908080359060200190929190505050610fb9565b6040518080602001828103825283818151815260200191508051906020019080838360005b8381101561050c5780820151818401526020810190506104f1565b50505050905090810190601f1680156105395780820380516001836020036101000a031916815260200191505b509250505060405180910390f35b61054f611074565b6040518080602001848152602001838152602001828103825285818151815260200191508051906020019080838360005b8381101561059b578082015181840152602081019050610580565b50505050905090810190601f1680156105c85780820380516001836020036101000a031916815260200191505b5094505050505060405180910390f35b61060e600480360360408110156105ee57600080fd5b810190808035906020019092919080359060200190929190505050611124565b005b6106526004803603602081101561062657600080fd5b81019080803573ffffffffffffffffffffffffffffffffffffffff1690602001909291905050506111e3565b005b610793600480360360c081101561066a57600080fd5b810190808035906020019064010000000081111561068757600080fd5b82018360208201111561069957600080fd5b803590602001918460018302840111640100000000831117156106bb57600080fd5b9091929391929390803590602001906401000000008111156106dc57600080fd5b8201836020820111156106ee57600080fd5b8035906020019184600183028401116401000000008311171561071057600080fd5b90919293919293908035906020019092919080359060200190929190803590602001909291908035906020019064010000000081111561074f57600080fd5b82018360208201111561076157600080fd5b8035906020019184600183028401116401000000008311171561078357600080fd5b90919293919293905050506112c0565b005b6107d7600480360360208110156107ab57600080fd5b81019080803573ffffffffffffffffffffffffffffffffffffffff16906020019092919050505061150b565b6040518082815260200191505060405180910390f35b6108196004803603602081101561080357600080fd5b8101908080359060200190929190505050611523565b6040518080602001828103825283818151815260200191508051906020019080838360005b8381101561085957808201518184015260208101905061083e565b50505050905090810190601f1680156108865780820380516001836020036101000a031916815260200191505b509250505060405180910390f35b6108c0600480360360208110156108aa57600080fd5b81019080803590602001909291905050506115d3565b6040518082815260200191505060405180910390f35b6108de6115f6565b005b61090c600480360360208110156108f657600080fd5b8101908080359060200190929190505050611678565b6040518082815260200191505060405180910390f35b6109646004803603602081101561093857600080fd5b81019080803573ffffffffffffffffffffffffffffffffffffffff16906020019092919050505061169b565b005b6109926004803603602081101561097c57600080fd5b8101908080359060200190929190505050611778565b6040518080602001828103825283818151815260200191508051906020019080838360005b838110156109d25780820151818401526020810190506109b7565b50505050905090810190601f1680156109ff5780820380516001836020036101000a031916815260200191505b509250505060405180910390f35b610a3960048036036020811015610a2357600080fd5b8101908080359060200190929190505050611833565b6040518082815260200191505060405180910390f35b610a57611856565b604051808381526020018281526020019250505060405180910390f35b610a7c611868565b6040518082815260200191505060405180910390f35b610ad460048036036020811015610aa857600080fd5b81019080803573ffffffffffffffffffffffffffffffffffffffff16906020019092919050505061186e565b005b60046000803373ffffffffffffffffffffffffffffffffffffffff1673ffffffffffffffffffffffffffffffffffffffff1681526020019081526020016000205414610b2157600080fd5b6000600760000160008381526020019081526020016000206008015414610b4757600080fd5b6001600760000160008381526020019081526020016000206008018190555050565b6060600760000160008381526020019081526020016000206005018054600181600116156101000203166002900480601f016020809104026020016040519081016040528092919081815260200182805460018160011615610100020316600290048015610c185780601f10610bed57610100808354040283529160200191610c18565b820191906000526020600020905b815481529060010190602001808311610bfb57829003601f168201915b50505050509050919050565b6060806007600001600084815260200190815260200160002060070154604051908082528060200260200182016040528015610c6f5781602001602082028038833980820191505090505b50905060008090505b6007600001600085815260200190815260200160002060070154811015610ce95760076000016000858152602001908152602001600020600601600082815260200190815260200160002054828281518110610cd057fe5b6020026020010181815250508080600101915050610c78565b5080915050919050565b60026000803373ffffffffffffffffffffffffffffffffffffffff1673ffffffffffffffffffffffffffffffffffffffff1681526020019081526020016000205414610d3e57600080fd5b600660009054906101000a900460ff1615610d5857600080fd5b604051806060016040528085858080601f016020809104026020016040519081016040528093929190818152602001838380828437600081840152601f19601f8201169050808301925050505050505081526020018381526020018281525060036000820151816000019080519060200190610dd592919061194b565b5060208201518160010155604082015181600201559050506001600660006101000a81548160ff02191690831515021790555050505050565b600660009054906101000a900460ff1681565b600a60009054906101000a900460ff1681565b60016000803373ffffffffffffffffffffffffffffffffffffffff1673ffffffffffffffffffffffffffffffffffffffff1681526020019081526020016000205414610e7f57600080fd5b60008060008373ffffffffffffffffffffffffffffffffffffffff1673ffffffffffffffffffffffffffffffffffffffff1681526020019081526020016000205414610eca57600080fd5b60026000808373ffffffffffffffffffffffffffffffffffffffff1673ffffffffffffffffffffffffffffffffffffffff1681526020019081526020016000208190555050565b60056000803373ffffffffffffffffffffffffffffffffffffffff1673ffffffffffffffffffffffffffffffffffffffff1681526020019081526020016000205414610f5c57600080fd5b81816001600060025481526020019081526020016000209190610f809291906119cb565b5060016002600082825401925050819055505050565b600060076000016000838152602001908152602001600020600801549050919050565b6060600760000160008381526020019081526020016000206000018054600181600116156101000203166002900480601f0160208091040260200160405190810160405280929190818152602001828054600181600116156101000203166002900480156110685780601f1061103d57610100808354040283529160200191611068565b820191906000526020600020905b81548152906001019060200180831161104b57829003601f168201915b50505050509050919050565b6003806000018054600181600116156101000203166002900480601f01602080910402602001604051908101604052809291908181526020018280546001816001161561010002031660029004801561110e5780601f106110e35761010080835404028352916020019161110e565b820191906000526020600020905b8154815290600101906020018083116110f157829003601f168201915b5050505050908060010154908060020154905083565b60036000803373ffffffffffffffffffffffffffffffffffffffff1673ffffffffffffffffffffffffffffffffffffffff168152602001908152602001600020541461116f57600080fd5b806007600001600084815260200190815260200160002060060160006007600001600086815260200190815260200160002060070154815260200190815260200160002081905550600160076000016000848152602001908152602001600020600701600082825401925050819055505050565b60016000803373ffffffffffffffffffffffffffffffffffffffff1673ffffffffffffffffffffffffffffffffffffffff168152602001908152602001600020541461122e57600080fd5b60008060008373ffffffffffffffffffffffffffffffffffffffff1673ffffffffffffffffffffffffffffffffffffffff168152602001908152602001600020541461127957600080fd5b60046000808373ffffffffffffffffffffffffffffffffffffffff1673ffffffffffffffffffffffffffffffffffffffff1681526020019081526020016000208190555050565b60036000803373ffffffffffffffffffffffffffffffffffffffff1673ffffffffffffffffffffffffffffffffffffffff168152602001908152602001600020541461130b57600080fd5b600a60009054906101000a900460ff161580156113345750600660009054906101000a900460ff165b61133d57600080fd5b6040518061010001604052808a8a8080601f016020809104026020016040519081016040528093929190818152602001838380828437600081840152601f19601f82011690508083019250505050505050815260200188888080601f016020809104026020016040519081016040528093929190818152602001838380828437600081840152601f19601f82011690508083019250505050505050815260200186815260200185815260200184815260200183838080601f016020809104026020016040519081016040528093929190818152602001838380828437600081840152601f19601f820116905080830192505050505050508152602001600081526020016000815250600760000160006007600201548152602001908152602001600020600082015181600001908051906020019061147c92919061194b565b50602082015181600101908051906020019061149992919061194b565b5060408201518160020155606082015181600301556080820151816004015560a08201518160050190805190602001906114d492919061194b565b5060c0820151816007015560e082015181600801559050506001600760020160008282540192505081905550505050505050505050565b60006020528060005260406000206000915090505481565b60016020528060005260406000206000915090508054600181600116156101000203166002900480601f0160208091040260200160405190810160405280929190818152602001828054600181600116156101000203166002900480156115cb5780601f106115a0576101008083540402835291602001916115cb565b820191906000526020600020905b8154815290600101906020018083116115ae57829003601f168201915b505050505081565b600060076000016000838152602001908152602001600020600401549050919050565b60036000803373ffffffffffffffffffffffffffffffffffffffff1673ffffffffffffffffffffffffffffffffffffffff168152602001908152602001600020541461164157600080fd5b600a60009054906101000a900460ff161561165b57600080fd5b6001600a60006101000a81548160ff021916908315150217905550565b600060076000016000838152602001908152602001600020600201549050919050565b60016000803373ffffffffffffffffffffffffffffffffffffffff1673ffffffffffffffffffffffffffffffffffffffff16815260200190815260200160002054146116e657600080fd5b60008060008373ffffffffffffffffffffffffffffffffffffffff1673ffffffffffffffffffffffffffffffffffffffff168152602001908152602001600020541461173157600080fd5b60036000808373ffffffffffffffffffffffffffffffffffffffff1673ffffffffffffffffffffffffffffffffffffffff1681526020019081526020016000208190555050565b6060600760000160008381526020019081526020016000206001018054600181600116156101000203166002900480601f0160208091040260200160405190810160405280929190818152602001828054600181600116156101000203166002900480156118275780601f106117fc57610100808354040283529160200191611827565b820191906000526020600020905b81548152906001019060200180831161180a57829003601f168201915b50505050509050919050565b600060076000016000838152602001908152602001600020600301549050919050565b60078060010154908060020154905082565b60025481565b60016000803373ffffffffffffffffffffffffffffffffffffffff1673ffffffffffffffffffffffffffffffffffffffff16815260200190815260200160002054146118b957600080fd5b60008060008373ffffffffffffffffffffffffffffffffffffffff1673ffffffffffffffffffffffffffffffffffffffff168152602001908152602001600020541461190457600080fd5b60056000808373ffffffffffffffffffffffffffffffffffffffff1673ffffffffffffffffffffffffffffffffffffffff1681526020019081526020016000208190555050565b828054600181600116156101000203166002900490600052602060002090601f016020900481019282601f1061198c57805160ff19168380011785556119ba565b828001600101855582156119ba579182015b828111156119b957825182559160200191906001019061199e565b5b5090506119c79190611a4b565b5090565b828054600181600116156101000203166002900490600052602060002090601f016020900481019282601f10611a0c57803560ff1916838001178555611a3a565b82800160010185558215611a3a579182015b82811115611a39578235825591602001919060010190611a1e565b5b509050611a479190611a4b565b5090565b611a6d91905b80821115611a69576000816000905550600101611a51565b5090565b9056fea165627a7a72305820d4c42620fa15b390ab28bfe39508e245e670800e395c4d4d34008284e5855f200029",
  "source": "pragma solidity >=0.5.0 <0.6.0;\n\nlibrary SafeMath {\n    /**\n     * @dev Returns the addition of two unsigned integers, reverting on\n     * overflow.\n     *\n     * Counterpart to Solidity's `+` operator.\n     *\n     * Requirements:\n     * - Addition cannot overflow.\n     */\n    function add(uint256 a, uint256 b) internal pure returns (uint256) {\n        uint256 c = a + b;\n        require(c >= a, \"SafeMath: addition overflow\");\n\n        return c;\n    }\n\n    /**\n     * @dev Returns the subtraction of two unsigned integers, reverting on\n     * overflow (when the result is negative).\n     *\n     * Counterpart to Solidity's `-` operator.\n     *\n     * Requirements:\n     * - Subtraction cannot overflow.\n     */\n    function sub(uint256 a, uint256 b) internal pure returns (uint256) {\n        return sub(a, b, \"SafeMath: subtraction overflow\");\n    }\n\n    /**\n     * @dev Returns the subtraction of two unsigned integers, reverting with custom message on\n     * overflow (when the result is negative).\n     *\n     * Counterpart to Solidity's `-` operator.\n     *\n     * Requirements:\n     * - Subtraction cannot overflow.\n     *\n     * NOTE: This is a feature of the next version of OpenZeppelin Contracts.\n     * @dev Get it via `npm install @openzeppelin/contracts@next`.\n     */\n    function sub(uint256 a, uint256 b, string memory errorMessage) internal pure returns (uint256) {\n        require(b <= a, errorMessage);\n        uint256 c = a - b;\n\n        return c;\n    }\n\n    /**\n     * @dev Returns the multiplication of two unsigned integers, reverting on\n     * overflow.\n     *\n     * Counterpart to Solidity's `*` operator.\n     *\n     * Requirements:\n     * - Multiplication cannot overflow.\n     */\n    function mul(uint256 a, uint256 b) internal pure returns (uint256) {\n        // Gas optimization: this is cheaper than requiring 'a' not being zero, but the\n        // benefit is lost if 'b' is also tested.\n        // See: https://github.com/OpenZeppelin/openzeppelin-contracts/pull/522\n        if (a == 0) {\n            return 0;\n        }\n\n        uint256 c = a * b;\n        require(c / a == b, \"SafeMath: multiplication overflow\");\n\n        return c;\n    }\n\n    /**\n     * @dev Returns the integer division of two unsigned integers. Reverts on\n     * division by zero. The result is rounded towards zero.\n     *\n     * Counterpart to Solidity's `/` operator. Note: this function uses a\n     * `revert` opcode (which leaves remaining gas untouched) while Solidity\n     * uses an invalid opcode to revert (consuming all remaining gas).\n     *\n     * Requirements:\n     * - The divisor cannot be zero.\n     */\n    function div(uint256 a, uint256 b) internal pure returns (uint256) {\n        return div(a, b, \"SafeMath: division by zero\");\n    }\n\n    /**\n     * @dev Returns the integer division of two unsigned integers. Reverts with custom message on\n     * division by zero. The result is rounded towards zero.\n     *\n     * Counterpart to Solidity's `/` operator. Note: this function uses a\n     * `revert` opcode (which leaves remaining gas untouched) while Solidity\n     * uses an invalid opcode to revert (consuming all remaining gas).\n     *\n     * Requirements:\n     * - The divisor cannot be zero.\n     * NOTE: This is a feature of the next version of OpenZeppelin Contracts.\n     * @dev Get it via `npm install @openzeppelin/contracts@next`.\n     */\n    function div(uint256 a, uint256 b, string memory errorMessage) internal pure returns (uint256) {\n        // Solidity only automatically asserts when dividing by 0\n        require(b > 0, errorMessage);\n        uint256 c = a / b;\n        // assert(a == b * c + a % b); // There is no case in which this doesn't hold\n\n        return c;\n    }\n\n    /**\n     * @dev Returns the remainder of dividing two unsigned integers. (unsigned integer modulo),\n     * Reverts when dividing by zero.\n     *\n     * Counterpart to Solidity's `%` operator. This function uses a `revert`\n     * opcode (which leaves remaining gas untouched) while Solidity uses an\n     * invalid opcode to revert (consuming all remaining gas).\n     *\n     * Requirements:\n     * - The divisor cannot be zero.\n     */\n    function mod(uint256 a, uint256 b) internal pure returns (uint256) {\n        return mod(a, b, \"SafeMath: modulo by zero\");\n    }\n\n    /**\n     * @dev Returns the remainder of dividing two unsigned integers. (unsigned integer modulo),\n     * Reverts with custom message when dividing by zero.\n     *\n     * Counterpart to Solidity's `%` operator. This function uses a `revert`\n     * opcode (which leaves remaining gas untouched) while Solidity uses an\n     * invalid opcode to revert (consuming all remaining gas).\n     *\n     * Requirements:\n     * - The divisor cannot be zero.\n     *\n     * NOTE: This is a feature of the next version of OpenZeppelin Contracts.\n     * @dev Get it via `npm install @openzeppelin/contracts@next`.\n     */\n    function mod(uint256 a, uint256 b, string memory errorMessage) internal pure returns (uint256) {\n        require(b != 0, errorMessage);\n        return a % b;\n    }\n}\n\ncontract Qiwi{\n\n    using SafeMath for uint;\n\n    struct task{\n        string name;\n        string description;\n        uint timeStart;\n        uint timeEnd;\n        uint money;\n        string workerAddr;\n        mapping (uint => uint) previousNumbers;\n        uint amountOfPreviousNumbers;\n        uint status;\n        // 0 - not done\n        // 1 - done\n    }\n\n\n    struct clientJob{\n        string result;\n        uint money;\n        uint expectingTime;\n    }\n\n    struct taskTree{\n        mapping (uint => task) tasks;\n        uint status;\n        /*\n        0 empty;\n        1 creating;\n        2 created;\n        */\n        uint amountOfTasks;\n    }\n\n    mapping (address => uint) public roles;\n    mapping (uint => string) public transactions;\n    uint public transactionsCount;\n\n    /* ROLES\n        1 - contract owner\n        2 - client (. )\n        3 - contractor (. )\n        4 - worker ()\n        5 - bot\n\n    */\n    constructor() public{\n        roles[msg.sender] = 1;\n        roles[0xE4864a2E8415F78E3a8E35a07cD92c6cF7636F98] = 1;\n        roles[0x0606bEa3Cf8586c2AFE57c705eE8C93D7baB67D7] = 2;\n        roles[0x862A447f1cB84a61f1b8442fBc60D80e6ec1BF2d] = 3;\n        roles[0xAc556767FFc7b3dA5f095BbaA31016aA2aEd758f] = 4;\n        roles[0x24431d4472826F9F6F461004DFb8836e2E1512f2] = 5;\n        tree = taskTree(0, 0);\n    }\n\n    modifier owner{\n        require(roles[msg.sender] == 1);\n        _;\n    }\n\n    modifier client{\n        require(roles[msg.sender] == 2);\n        _;\n    }\n\n    modifier contractor{\n        require(roles[msg.sender] == 3);\n        _;\n    }\n\n    modifier worker{\n        require(roles[msg.sender] == 4);\n        _;\n    }\n\n    modifier bot{\n        require(roles[msg.sender] == 5);\n        _;\n    }\n\n    clientJob public job;\n    bool public jobSet;\n    taskTree public tree;\n    bool public treeClosed;\n\n    function addClient(address addr) external owner{\n        require(roles[addr] == 0);\n        roles[addr] = 2;\n    }\n\n    function addConstructor(address addr) external owner{\n        require(roles[addr] == 0);\n        roles[addr] = 3;\n    }\n\n    function addWorker(address addr) external owner{\n        require(roles[addr] == 0);\n        roles[addr] = 4;\n    }\n\n    function addBot(address addr) external owner{\n        require(roles[addr] == 0);\n        roles[addr] = 5;\n    }\n\n    function addTransaction(string calldata transactionData) external bot{\n        transactions[transactionsCount] = transactionData;\n        transactionsCount+=1;\n    }\n\n    function setJob(string calldata result, uint money, uint time) external client{\n        require(!jobSet);\n        job = clientJob(result, money, time);\n        jobSet = true;\n    }\n\n\n    function addTask(string calldata name, string calldata description, uint timeStart, uint timeEnd,\n    uint money, string calldata workerAddr) external contractor{\n        require(!treeClosed && jobSet);\n        tree\n        .tasks[tree.amountOfTasks] = task(\n            name,\n            description,\n            timeStart,\n            timeEnd,\n            money,\n            workerAddr,\n            0,\n            0\n            );\n        tree.amountOfTasks+=1;\n    }\n\n    function addPreviousTask(uint thisTask, uint prevTask) external contractor{\n        tree.tasks[thisTask].previousNumbers[tree.tasks[thisTask].amountOfPreviousNumbers] = prevTask;\n        tree.tasks[thisTask].amountOfPreviousNumbers+=1;\n    }\n\n    function closeTree() external contractor{\n        require(!treeClosed);\n        treeClosed = true;\n    }\n\n    function closeTask(uint taskNumber) external worker{\n        require(tree.tasks[taskNumber].status == 0);\n        tree.tasks[taskNumber].status = 1;\n    }\n\n    function getTaskName(uint number) external view returns (string memory){\n        return tree.tasks[number].name;\n    }\n\n    function getTaskDescription(uint number) external view returns (string memory){\n        return tree.tasks[number].description;\n    }\n\n    function getTaskTimeStart(uint number) external view returns (uint){\n        return tree.tasks[number].timeStart;\n    }\n\n    function getTaskTimeEnd(uint number) external view returns (uint){\n        return tree.tasks[number].timeEnd;\n    }\n\n    function getTaskMoney(uint number) external view returns (uint){\n        return tree.tasks[number].money;\n    }\n\n    function getTaskWorkerName(uint number) external view returns (string memory){\n        return tree.tasks[number].workerAddr;\n    }\n    function getTaskPreviousNumbers(uint number) external view returns (uint[] memory){\n        uint[] memory ret = new uint[](tree.tasks[number].amountOfPreviousNumbers);\n        for (uint i = 0; i < tree.tasks[number].amountOfPreviousNumbers; i++){\n            ret[i] = tree.tasks[number].previousNumbers[i];\n        }\n        return ret;\n    }\n\n    function getTaskStatus(uint number) external view returns (uint){\n        return tree.tasks[number].status;\n    }\n}",
  "sourcePath": "/home/pancake/hackaton/rep/finodays/src/components/blockchain/contracts/Qiwi.sol",
  "compiler": {
    "name": "solc",
    "version": "0.5.8+commit.23d335f2.Emscripten.clang"
  },
  "schemaVersion": "3.0.13",
  "updatedAt": "2019-10-07T23:08:52.998Z",
  "devdoc": {
    "methods": {}
  },
  "userdoc": {
    "methods": {}
  }
}